:1000000029C000003BC0000039C0000037C000001C
:1000100035C0000033C0000031C000002FC0000018
:100020002DC000002BC0000029C0000027C0000028
:1000300025C0000023C0000021C000001FC0000038
:100040001DC000001BC0000019C0000017C0000048
:1000500015C0000011241FBECFE5D4E0DEBFCDBF28
:1000600011E0A0E6B0E0E2ECF1E102C005900D92F3
:10007000AC32B107D9F7C6D60C94DF08C1CF82B332
:10008000876082BB0895909897E0482F50E09A01CE
:10009000092E02C0359527950A94E2F720FF02C089
:1000A000929A01C092989098909A915080F70895F2
:1000B0002CE080E090E0880F991F909A909830B3E0
:1000C00033FB442740F950E0840F951F215099F7E6
:1000D0000895662311F0A89A01C0A898AE9898BB1D
:1000E0008BBBA99AA998AE9A0895CF93DF93EB01A1
:1000F00060E0EFDF61E0CE01ECDFDF91CF910895AA
:10010000EF92FF920F931F93CF93DF938C01EB013C
:10011000790160E070E0742F680F791F84E490E04B
:10012000E4DFBE0185E490E0E0DFB70186E490E023
:10013000DCDFB8018EE490E0D8DFBE018FE490E010
:10014000D4DF60E082E290E0C4DFDF91CF911F91C5
:100150000F91FF90EF9008958FEF8ABB87BB84BB10
:1001600087EE81BBAF9A8FEF93E20197F1F700C062
:100170000000AF988FEF97E40197F1F700C00000FF
:10018000AF9AAE9AAA9AA9988FEF9FE80197F1F7D4
:1001900000C0000061E070E080E090E0A6DF83E353
:1001A00097E00197F1F764EA78EA83E090E09DDF59
:1001B00083E397E00197F1F760E070E08CE090E076
:1001C00094DF83E397E00197F1F76CE078E08DE04E
:1001D00090E08BDF83E397E00197F1F760E07BE24B
:1001E0008EE090E082DF83E397E00197F1F760EB28
:1001F00070E08EE190E079DF83E397E00197F1F71B
:100200006FE37BE281E090E070DF83E397E00197AA
:10021000F1F760E076E082E090E067DF83E397E06B
:100220000197F1F760E070E080E190E05EDF83E34A
:1002300097E00197F1F760E770E681E190E055DF24
:1002400083E397E00197F1F760E070E085E090E0EC
:100250004CDF83E397E00197F1F760E070E086E020
:1002600090E043DF83E397E00197F1F76CE17FEEE5
:1002700086E190E03ADF83E397E00197F1F763E0EE
:1002800070E087E190E031DF83E397E00197F1F7D9
:1002900063E372E087E090E028DF83E397E0019773
:1002A000F1F760E070E08BE090E01FDF83E397E020
:1002B0000197F1F760E070E08FE090E016DF83E3F4
:1002C00097E00197F1F760E070E081E490E00DDFE6
:1002D00083E397E00197F1F760E070E082E490E05B
:1002E00004DF83E397E00197F1F760E070E088E4D2
:1002F00090E0FBDE83E397E00197F1F76FE371E0B5
:1003000089E490E0F2DE83E397E00197F1F760E0A3
:1003100070E08AE490E0E9DE83E397E00197F1F78B
:1003200060E070E08BE490E0E0DE83E397E001972B
:10033000F1F760E07FEE84E490E0D7DE83E397E0BE
:100340000197F1F760E070E085E490E0CEDE83E3B2
:1003500097E00197F1F76FE371E086E490E0C5DE86
:1003600083E397E00197F1F767E077E080E390E0BF
:10037000BCDE83E397E00197F1F764E072E081E38C
:1003800090E0B3DE83E397E00197F1F764E072E079
:1003900082E390E0AADE83E397E00197F1F762E061
:1003A00075E083E390E0A1DE83E397E00197F1F746
:1003B00067E075E084E390E098DE83E397E00197DF
:1003C000F1F764E072E085E390E08FDE83E397E08D
:1003D0000197F1F764E072E086E390E086DE83E364
:1003E00097E00197F1F762E075E087E390E07DDE4A
:1003F00083E397E00197F1F762E073E08AE390E02E
:1004000074DE83E397E00197F1F762E073E08BE33A
:1004100090E06BDE83E397E00197F1F760E070E036
:1004200083E290E062DE83E397E00197F1F760E01A
:1004300070E084E290E059DE83E397E00197F1F702
:1004400060E070E08FE490E050DE60E070E08EE409
:1004500090E04BDE60E082E290E03BCE0895CF93E7
:10046000DF93EB01BC018EE490E03FDE60E471E0DD
:100470006C1B7D0B8FE490E038DE60E082E290E060
:1004800028DEDF91CF9108950F931F93CF93DF93D1
:10049000EC018B0183E397E00197F1F7919880E9F4
:1004A000F2DDE3E3F7E03197F1F7909A0000000006
:1004B0000000000090980000000000000000F8DD3F
:1004C0009C0120553109ABEABAEA6AD69695879520
:1004D00096958795F8019183808380EDD4DD909A7D
:1004E00000000000000000009098000000000000E4
:1004F0000000DEDD80559109969587959695879544
:100500009695879599838883919ADF91CF911F91D2
:100510000F910895EF92FF920F931F93CF93DF9364
:100520007A01AE98C22FD0E020E431E0A901461B49
:10053000570BBA019A012C0F3D1FAE01480F591FEE
:10054000DFDDCC9F8001CD9F100D100D1124101602
:10055000110654F4C0E061E0C701BBDDCF5F8C2F12
:1005600090E080179107BCF3AE9ADF91CF911F9175
:100570000F91FF90EF9008952F923F924F925F92CC
:100580006F927F928F929F92AF92BF92CF92DF92A3
:10059000EF92FF920F931F93CF93DF9300D000D081
:1005A000CDB7DEB789839A836B01542E39011801C8
:1005B000F12C4701880C991C880C991CC4018E0DE4
:1005C0009F1D9C0126563F4F49010F2EF5E04F2EEF
:1005D000F02DA42EB12CF401E1904F0109811A8174
:1005E0001C821B82F12CC7010B8002C09595879558
:1005F0000A94E2F780FF06C0252DA301B601C801C9
:1006000089DF05C0252DA101B601C80183DF2B813B
:100610003C812F5F3F4F3C832B830A0D1B1D2830ED
:10062000310509F7CA0CDB1C4A944110D4CF0F9056
:100630000F900F900F90DF91CF911F910F91FF902E
:10064000EF90DF90CF90BF90AF909F908F907F9072
:100650006F905F904F903F902F9008953F924F92F0
:100660005F926F927F928F929F92AF92BF92CF9242
:10067000DF92EF92FF920F931F93CF93DF936B0163
:10068000342E49012801242F26953C01620E711C4D
:10069000A42EB12CC501880F991F880F991FA80E91
:1006A000B91E8FEFA81AB80ACE2DDF2D899180329E
:1006B00059F40F2EFAE1EF2EF02D82019401432D13
:1006C000B601C30159DF25C0813359F40F2EFBE178
:1006D000EF2EF02D82019401432DB601C3014CDFB2
:1006E00018C0823359F40F2EFCE1EF2EF02D820159
:1006F0009401432DB601C3013FDF0BC00F2EFFEB6A
:10070000EF2EF02DE80E82019401432DB601C301B6
:1007100033DFCA0CDB1C88818111C8CFDF91CF91F8
:100720001F910F91FF90EF90DF90CF90BF90AF900F
:100730009F908F907F906F905F904F903F90089523
:10074000EF92FF920F931F93CF938C012FE331E031
:100750004FEE50E060E070E080E090E0D1DC689423
:10076000EE24E6F8FF24F39409C061E0C801B1DC8F
:10077000C150D9F781E0E81AF10811F0C0EFF5CFC8
:10078000CF911F910F91FF90EF900895CF93DF933A
:10079000EA01AE9864DE61E0CE019BDCAE9ADF91A7
:1007A000CF910895CF92DF92EF92FF920F931F9314
:1007B000CF93DF936C01EB018A0179016417750710
:1007C00040F4A701BE01C601E1DF2196C017D107A1
:1007D000C0F3DF91CF911F910F91FF90EF90DF90C9
:1007E000CF900895CF92DF92EF92FF920F931F93D5
:1007F000CF93DF936C01EB018A01790164177507D0
:1008000040F4A701B601CE01C1DF2196C017D10780
:10081000C0F3DF91CF911F910F91FF90EF90DF9088
:10082000CF9008955F926F927F928F929F92AF9236
:10083000BF92CF92DF92EF92FF920F931F93CF93CD
:10084000DF9341155105F9F049018A017B016C01E3
:10085000612C712C512C5A01A60EB71EE601C60D53
:10086000D71DB701660D771DA401CE018FDFB5013D
:1008700066197709A401CE0189DF5394652C712C88
:100880006016710658F3DF91CF911F910F91FF9081
:10089000EF90DF90CF90BF90AF909F908F907F9020
:1008A0006F905F9008952F923F924F925F926F9258
:1008B0007F928F929F92AF92BF92CF92DF92EF92F0
:1008C000FF920F931F93CF93DF9319013C01640EA6
:1008D000751E2A01460E571ECC27DD27C41BD50BDB
:1008E0004E01880C991C22E0820E911C00E010E061
:1008F000A1016201C00ED11EB6017301EC1AFD0AFE
:10090000C70144DFA101B6015301AC0EBD1EC501F4
:100910003DDFA1016201C01AD10AB601C50136DF6F
:10092000A101B601C70132DF08151905ACF00F5F50
:100930001F4FC801880F991F0196880D991D222706
:1009400033272C1B3D0B0217130739F4C815D905A3
:100950003CF0812C912C01C0C401C815D90554F478
:1009600021964E01880C991C2FEF821A920A880E4C
:10097000991E01C04C011C161D060CF0B9CFDF9169
:10098000CF911F910F91FF90EF90DF90CF90BF908C
:10099000AF909F908F907F906F905F904F903F901F
:1009A0002F900895AF92BF92CF92DF92EF92FF9275
:1009B0000F931F93CF93DF936C015B017A01EB01DF
:1009C000C20FD31F9801AE01EDDEEC0CFD1C9801A7
:1009D000AE01B501C701E6DE9801A701B601C50168
:1009E00001DF9801A701B601CE01FCDEDF91CF91B6
:1009F0001F910F91FF90EF90DF90CF90BF90AF903D
:100A00000895EF92FF920F931F938EEA9AE198DE7A
:100A10002FEF3FEF46E351E06AE570E080E590E0BC
:100A2000C1DE2FEF3FEF46E351E06AE570E080EA78
:100A300090E0B8DE2FEF3FEF46EE50E06AE070E066
:100A400080EA90E0CFDE2FEF3FEF46EE50E06AE025
:100A500070E080EF90E0C6DE0FEF1FEF26E430E09D
:100A600048E250E06AE070E08AE090E09BDF0F2E01
:100A7000F0E6EF2EF0E0FF2EF02D0EEA1AE12FEF58
:100A80003FEF43E06FE070E082E190E0E7DD1F912F
:100A90000F91FF90EF900895EF92FF920F931F93A5
:100AA0008EEA9AE14DDE0FEF1FEF20EF30E04CE3CE
:100AB00050E068E270E088E290E074DF0F2EF6E626
:100AC000EF2EF0E0FF2EF02D0EEA1AE12FEF3FEFB0
:100AD00043E06DE470E08AE390E0C0DD0FEF1FEFCC
:100AE00024E630E04CE350E064EB70E08CE890E00A
:100AF00059DF0F2EF3E7EF2EF0E0FF2EF02D0EEA78
:100B00001AE12FEF3FEF43E069EB70E08EE990E0F0
:100B1000A5DD0FEF1FEF24E630E04CE350E068E284
:100B200070E08CE890E03EDF0F2EFBE7EF2EF0E068
:100B3000FF2EF02D0EEA1AE12FEF3FEF43E06DE2BA
:100B400070E08EE990E08ADD1F910F91FF90EF90A9
:100B50000895EF92FF920F931F936217730788F027
:100B6000E20EF31EE616F70670F08417950768F09C
:100B7000040F151F21E00817190708F420E0822F41
:100B800005C080E003C080E001C080E01F910F91AC
:100B9000FF90EF900895CF93DF93BC01FC019C017F
:100BA0002D5F3F4FDC019081992331F081819813B3
:100BB00003C08281981749F19D91992351F01296B3
:100BC0008C911297981305C015968C9115979817CC
:100BD000E1F03396A217B30731F7EB018C8188233C
:100BE000A1F09881891303C09885891749F0FB010A
:100BF0009281891307C09681891306C0892F05C089
:100C0000892F03C080E001C080E0DF91CF9108957B
:100C10005F926F927F928F929F92AF92BF92CF928C
:100C2000DF92EF92FF920F931F93CF93DF936C01AC
:100C3000162F642E722EAFDF882321F0611020C0A2
:100C400081E048C01930F0F4611020C099249394D9
:100C50001FC08E019881911106C0662091F128C0B5
:100C6000982EF80110822196EC16FD0691F7E70107
:100C7000EA14FB0449F07E01F3E0EF0EF11CE9CF2A
:100C80008FEF28C080E026C0892D24C099249A9433
:100C900081E0781202C082E001C081E0582EE601B6
:100CA0005601E9E0AE0EB11C88248394810EE3CF97
:100CB0007882272D40E0682DC601AADF981684F2BD
:100CC000D0CF5882272D41E0682DC601A1DF8915BC
:100CD0003CF2C7CFDF91CF911F910F91FF90EF9022
:100CE000DF90CF90BF90AF909F908F907F906F904C
:100CF0005F9008956F927F928F929F92AF92BF9272
:100D0000CF92DF92EF92FF920F931F93CF93DF93D7
:100D1000882E992EC42EE82EF92E00E0AA24AA943B
:100D2000612CD12CBB24B394B60E1AC098819111BA
:100D30000DC0C8822C2D40E06B2D882D992D68DFC9
:100D40001882A8161CF4A82E612ED72C21961F5F9E
:100D5000133061F783E0E80EF11C0F5F033021F0E0
:100D6000E70110E0702EE2CF8D2D880F8D0D860DDE
:100D7000DF91CF911F910F91FF90EF90DF90CF9077
:100D8000BF90AF909F908F907F906F900895FB01E0
:100D9000EE0FFF1FE60FF71F8E0F9F1FFC01E40FE2
:100DA000F51F208380E5689F802D1124865F94E1E4
:100DB000949FF001959FF00D1124BF01665A7F4F5B
:100DC0009CE3949FF001959FF00D1124E60FF71F0F
:100DD000223061F4BF01665F7F4F90E02BE237EC79
:100DE00044E150E00A965FDD81E00895BF01665F4F
:100DF0007F4F90E029E633ED48E250E00A9612DD9D
:100E000082E00895CF93DF93CDB7DEB76A970FB630
:100E1000F894DEBF0FBECDBF9FD93EDE30D9188E0D
:100E2000188A198ACE0101969F878E879E85998F91
:100E3000EF85EA8FF989FF2309F497C18889811129
:100E400076C1CE010196A7DE888B9B89993018F474
:100E5000811145C14AC00FEF1FEF26E430E046E4A0
:100E600050E06AE070E080EA90E09CDDE889E11102
:100E700011C00F2EF3E8EF2EF0E0FF2EF02D0EEA5A
:100E80001AE12FEF3FEF43E06FE070E080E890E081
:100E9000E5DB13C00F2EF9E8EF2EF0E0FF2EF02D6A
:100EA0000EEA1AE12FEF3FEF43E066E170E080E8E1
:100EB00090E0D4DBF889F23049F42BE237EC43E2DE
:100EC00050E06AE070E080EA90E0EDDC88898230F2
:100ED00078F529E633ED46E450E06AE070E080EA18
:100EE00090E0A0DC91E0988B25C0EA89F88DEF13A3
:100EF00036C08B89882331F04F2F682FCE010196A1
:100F0000F9DE01C080E09BEA899F612D112466957E
:100F1000962F990F960F891B482F50E070E02A8971
:100F2000CE01019634DF8A8BEB89EF5FEB8B02C039
:100F3000F1E0F88B8A89988D891311C00F2EFEE895
:100F4000EF2EF0E0FF2EF02D0EEA1AE12FEF3FEF2B
:100F500043E06FE070E08AE390E080DBE8C0EA897C
:100F6000E13089F40F2EF2E9EF2EF0E0FF2EF02DA4
:100F70000EEA1AE12FEF3FEF43E06FE070E08AE303
:100F800090E06CDBD4C00F2EF6E9EF2EF0E0FF2EE0
:100F9000F02D0EEA1AE12FEF3FEF43E06FE070E033
:100FA0008AE390E05BDBC3C00F2EF4E6EF2EF12C5A
:100FB000F02D0CE310E028E230E048E250E0B6010A
:100FC000C501C7DD8111D4C00F2EF0EFEF2EF12C3B
:100FD000F02D28E230E04CE850E0B601C501B9DD63
:100FE0008111C9C027CF58DD198A24CFF889FF2382
:100FF00001F10F2EF6E4EF2EF12CF02D06E410E0B7
:101000002AE030E040EA50E0B501C601A2DD8823C5
:1010100009F410CFF6DC19821A821B821C821D8211
:101020001E821F8218861986188A81E08A8B1B8A85
:1010300001CFFE0131961F010F2EFAE04F2E512CE9
:10104000F02D612C712C41010F2EFAE5AF2EB12C41
:10105000F02DC12CD12C7D8A6C8A3F8A2E8A6C851A
:101060007D850F2EFCE3EF2EF12CF02D0CE310E02C
:101070009501A2018A859B856CDD882381F0F401AE
:10108000808181110CC02A894C2D5D2D6C897D8950
:10109000898D9A8D7CDE8A8BFB89FF5FFB8B8FEFBE
:1010A000C81AD80A90E5A90EB11CEFEF8E1A9E0A55
:1010B000F3E0CF16D10499F66C887D882E883F889E
:1010C0008FEF681A780A93E0290E311CE0E54E0E86
:1010D000511CF3E06F16710409F0B5CFABCE0FEFE2
:1010E0001FEF26E430E046E450E06AE070E080EA7A
:1010F00090E058DCCFCEBE01645F7F4FCE010A96F0
:10110000C3D9AC84BD84CA84DB840F2EF6E4EF2EF1
:10111000F12CF02D08E210E02AE030E04AE050E047
:10112000B501C60116DD882309F460CF5CCF849930
:1011300081CEE1CFBE01645F7F4FCE010A96A4D974
:10114000CC84DD84AA84BB840F2EF4E6EF2EF12C30
:10115000F02D0CE310E024EB30E048E250E0B60163
:10116000C501F7DC811109C01FCF849BE3CF62CE9C
:1011700082E0888F04C0188E02C091E0988F41DC15
:1011800019821A821B821C821D821E821F8218866F
:101190001986188AE1E0E98BF1E0FA8B1B8A4ACEC6
:1011A000A29FB001B39FC001A39F700D811D1124A8
:1011B000911DB29F700D811D1124911D0895F89409
:0211C000FFCF5F
:1011C2004241434B000054574F20504C4159455225
:1011D200530000414920324E44000041492031531E
:1011E200540000445241570000574F4E00004149FD
:1011F200000050310000503200007E1111117E7F3C
:10120200494949363E414141227F4141221C7F49A1
:101212004949417F090909013E4149497A7F080844
:10122200087F00417F41002040413F017F08142296
:10123200417F404040407F020C027F7F0408107FC4
:101242003E4141413E7F090909063E4151215E7FEF
:1012520009192946464949493101017F01013F40A7
:1012620040403F1F2040201F3F4038403F6314084A
:1012720014630708700807615149454300000000E4
:0C1282000000427F4000426151494600DC
:00000001FF
